:020000040800F2
:100000000000022099080008650800086708000839
:10001000690800086B0800086D080008000000006F
:100020000000000000000000000000006F08000851
:100030007108000800000000730800087508000837
:10004000E9080008E9080008E9080008E9080008CC
:10005000E9080008E90800087D080008E908000828
:10006000E9080008E9080008E9080008E9080008AC
:10007000E9080008E9080008E9080008E90800089C
:10008000E9080008E9080008E9080008E90800088C
:10009000E9080008E9080008E9080008E90800087C
:1000A000E9080008E9080008E9080008E90800086C
:1000B000E9080008E9080008E9080008E90800085C
:1000C000E9080008E9080008E9080008E90800084C
:1000D000E9080008E9080008E9080008E90800083C
:1000E000E9080008E9080008E9080008E90800082C
:1000F000E9080008E9080008E9080008E90800081C
:10010000E9080008E9080008E9080008E90800080B
:10011000E9080008E9080008E9080008E9080008FB
:10012000E9080008E9080008E9080008E9080008EB
:10013000E9080008E9080008E9080008E9080008DB
:10014000E9080008E9080008E9080008E9080008CB
:10015000E9080008E9080008E9080008E9080008BB
:10016000E9080008E9080008E9080008E9080008AB
:10017000E9080008E9080008E90800080000000094
:08018000E9080008E908000885
:1001880010B5054C237833B9044B13B10448AFF3C9
:1001980000800123237010BD7C04002000000000B3
:1001A8009418000808B5034B1BB103490348AFF383
:1001B800008008BD0000000080040020941800089A
:1001C80053B94AB9002908BF00281CBF4FF0FF31B6
:1001D8004FF0FF3000F074B9ADF1080C6DE904CEB2
:1001E80000F006F8DDF804E0DDE9022304B070470A
:1001F8002DE9F047089E0D4604468846002B4DD150
:100208008A42944668D9B2FA82F252B101FA02F3EC
:10021800C2F1200120FA01F10CFA02FC41EA0308BC
:1002280094404FEA1C45210CB8FBF5FE1FFA8CF7E9
:1002380005FB1E8341EA03430EFB07F199420BD9E4
:100248001CEB03030EF1FF3080F01E81994240F24F
:100258001B81AEF1020E63445B1AA4B2B3FBF5F046
:1002680005FB103344EA034400FB07F7A7420AD909
:100278001CEB040400F1FF3380F00881A74240F230
:10028800058164440238E41B40EA0E4000211EB197
:10029800D4400023C6E90043BDE8F0878B4208D963
:1002A800002E00F0EE800021C6E900050846BDE8F2
:1002B800F087B3FA83F100294AD1AB4202D38242D4
:1002C80000F2F980841A65EB030301209846002E9A
:1002D800E2D0C6E90048DFE702B9FFDEB2FA82F2EF
:1002E800002A40F09180A1EB0C054FEA1C471FFA49
:1002F8008CFE0121B5FBF7F307FB1350250C45EAEB
:1003080000450EFB03F0A84208D91CEB050503F1D4
:10031800FF3802D2A84200F2CB8043462D1AA4B27D
:10032800B5FBF7F007FB105544EA05440EFB00FE49
:10033800A64508D91CEB040400F1FF3502D2A645F6
:1003480000F2BB802846A4EB0E0440EA03409EE777
:10035800C1F120078B4022FA07FC4CEA030C20FA73
:1003680007F405FA01F31C43FD404FEA1C4900FA63
:1003780001F3B5FBF9F8200C1FFA8CFE09FB1855A0
:1003880040EA054508FB0EF0A84202FA01F20BD933
:100398001CEB050508F1FF3A80F08880A84240F27E
:1003A8008580A8F1020865442D1AA4B2B5FBF9F0BE
:1003B80009FB105544EA054500FB0EFEAE4508D979
:1003C8001CEB050500F1FF346CD2AE456AD9023842
:1003D800654440EA0840A0FB0294A5EB0E05A5423F
:1003E800C846A64656D353D05EB1B3EB080265EBB8
:1003F8000E0505FA07F722FA01F3CD401F43C6E9B7
:1004080000750021BDE8F087C2F1200320FA03F14E
:100418000CFA02FC25FA03F395400D434FEA1C47FA
:100428001FFA8CFEB3FBF7F107FB11302B0C43EAE4
:10043800004301FB0EF0984204FA02F408D91CEBC1
:10044800030301F1FF382FD298422DD902396344B2
:100458001B1AADB2B3FBF7F007FB103345EA0345AF
:1004680000FB0EF3AB4208D91CEB050500F1FF3881
:1004780016D2AB4214D902386544ED1A40EA01415C
:1004880038E73146304607E78646E5E61846FAE695
:100498004B45A9D2B9EB020864EB0C0E0138A3E76F
:1004A8004046EAE7204694E74146D1E7D0467BE755
:1004B800023B654432E7084609E76444023842E7EC
:1004C800704700BF10B596B0002301931C4A116B0A
:1004D80041F008011163126B02F008020192019ABF
:1004E8004FF4005211920222129213931493159210
:1004F8004FF48051029103920493059306924FF4AE
:1005080080410C910D920E930F9310924FF400417D
:100518000791089209930A930B920A4C11A9204655
:1005280000F0B2FA02A9204600F0AEFA0CA9204663
:1005380000F0AAFA07A9204600F0A6FA16B010BDE6
:1005480000380240000C024010B582B0002301932D
:100558000E4A116C41F004011164126C02F004029D
:100568000192019A0A4C6360A3606422E2604FF42E
:10057800007222616361204600F044F9204600F0D1
:1005880095FF204600F01AFF02B010BD0038024067
:100598000000002070B588B006460C460B4D284672
:1005A80000F09EFF60230193029600230393042327
:1005B800059322460DEB0301284600F0E3FF214690
:1005C800284601F05DF808B070BD00BF00000020AB
:1005D80010B586B0002400940E4B1A6B42F001024D
:1005E8001A631B6B03F001030093009B0123019323
:1005F800094B0293039401A9084800F045FA2246E2
:100608002146062000F0E6F9062000F01BFA06B0A5
:1006180010BD00BF00380240000011100000024069
:1006280008B50F4B1B7873B90D4B01221A700C4B90
:100638001B7863B100210846FFF7ACFF08210020B2
:10064800FFF7A8FF08BD064B00221A70EFE7042148
:100658000020FFF79FFF0C210020FFF79BFFF1E729
:100668009804002072B6FEE700B595B0302200214C
:1006780008A801F049F8002303930493059306930F
:10068800079301931F4A116C41F080511164126C59
:1006980002F080520192019A02931B4A116841F4B8
:1006A80080411160126802F480420292029A02228A
:1006B800089201210B9110210C910E920F9308239F
:1006C800109332231193042312930723139308A83A
:1006D80000F0D0FA90B90F2303930223049300216A
:1006E80005914FF4A05306934FF48053079303A842
:1006F80000F020FD20B915B05DF804FBFFF7B2FF4C
:10070800FFF7B0FF003802400070004000B585B028
:1007180000230393029367238DF8073000F008F94C
:10072800FFF7A2FFFFF710FFFFF752FFFFF7CAFE20
:1007380016E00123029316E0039B01330393029B07
:10074800012B17D00A2000F01FF9114B1B78ABB909
:1007580003980021FFF71EFF03980821FFF71AFFEF
:10076800039B642BE5D0039B03B90293029B002BE8
:10077800E5D1E1E7039B013B0393E3E703980421F9
:10078800FFF708FF03980C21FFF704FFE8E700BF15
:100798009804002000B583B0002100910C4B5A6CDE
:1007A80042F480425A645A6C02F480420092009AE1
:1007B80001911A6C42F080521A641B6C03F080534A
:1007C8000193019B072000F0F3F803B05DF804FBE8
:1007D800003802400268094B9A4200D0704782B044
:1007E80000230193064B1A6C42F004021A641B6C36
:1007F80003F004030193019B02B070470008004016
:100808000038024000B587B0002301930293039398
:100818000493059302680E4B9A4202D007B05DF824
:1008280004FB002300930B4B1A6B42F002021A637D
:100838001B6B03F002030093009B4FF4707301934A
:1008480002230293059301A9034800F01DF9E5E787
:10085800000800400038024000040240FEE7FEE7BE
:10086800FEE7FEE7FEE770477047704708B500F0FF
:1008780079F808BD08B5012000F0EEF908BD0000C0
:10088800024B4FF000629A60704700BF00ED00E035
:10089800DFF834D0002103E00C4B5B58435004319F
:1008A8000B480C4B42189A42F6D30B4A02E000233D
:1008B80042F8043B094B9A42F9D3FFF7E1FF00F0F5
:1008C800FFFEFFF723FF704700000220D41800083E
:1008D800000000207C0400207C040020A4040020E8
:1008E800FEE7000010B504460E4B18784FF47A73F3
:1008F800B3FBF0F30C4A1068B0FBF3F000F0B0F86B
:1009080068B90F2C01D901200AE0002221464FF0D6
:10091800FF3000F05FF8054B1C60002000E001206C
:1009280010BD00BF44000020400000204800002007
:1009380008B50B4B1A6842F400721A601A6842F440
:1009480080621A601A6842F480721A60032000F00C
:100958002FF80020FFF7C6FFFFF71CFF002008BD97
:10096800003C0240034A1168034B1B780B44136098
:10097800704700BF9C04002044000020014B186809
:10098800704700BF9C04002038B50446FFF7F6FF07
:100998000546B4F1FF3F02D0044B1B781C44FFF717
:1009A800EDFF401BA042FAD338BD00BF4400002031
:1009B800074AD36823F4E0631B041B0C000200F40D
:1009C800E060034343F0BF6343F40033D3607047F0
:1009D80000ED00E000B5194BDB68C3F30223C3F157
:1009E800070CBCF1040F28BF4FF0040C03F1040EF0
:1009F800BEF1060F18D9033B4FF0FF3E0EFA0CFC70
:100A080021EA0C0199400EFA03F322EA0303194381
:100A180000280BDB0901C9B200F1604000F5614014
:100A280080F800135DF804FB0023E5E700F00F00F1
:100A38000901C9B2024B1954F4E700BF00ED00E008
:100A480014ED00E0002807DB00F01F024009012335
:100A58009340024A42F82030704700BF00E100E0AE
:100A68000138B0F1807F0BD24FF0E0235861054A7E
:100A7800F02182F823100020986107221A6170473C
:100A88000120704700ED00E000230F2B00F2DA8010
:100A9800F0B583B03AE0072200E00022AA403243D2
:100AA8000234694D45F82420684A14686FEA0C023C
:100AB80024EA0C054E6816F4803F01D04CEA040580
:100AC800624C2560646802EA04054E6816F4003F2B
:100AD80001D04CEA04055D4C6560A46802EA04058F
:100AE8004E6816F4801F01D04CEA0405574CA560E7
:100AF800E46822404D6815F4001F01D04CEA040256
:100B0800524CE26001330F2B00F29A8001229A4086
:100B18000C6804EA020C32EA0404F3D14C68651E3E
:100B2800012D03D9112C01D0122C12D185685E0039
:100B38000324B44025EA0405CC68B4402C438460FF
:100B4800456825EA02054C68C4F300129A402A4316
:100B58004260C5684FEA430E032404FA0EF4E243E8
:100B680025EA04058C6804FA0EF42C43C4604C682A
:100B7800022C01D0122C0FD1DD08083550F8257051
:100B880003F00704A6000F24B44027EA04070C6901
:100B9800B4403C4340F82540046814404A6802F0D9
:100BA800030202FA0EF2224302604A6812F0805FE2
:100BB800A8D000220192264A546C44F4804454641C
:100BC800526C02F480420192019A9C08A51C1E4AAC
:100BD80052F8256003F0030295000F22AA4026EA86
:100BE80002061C4A90423FF458AF02F580629042D8
:100BF8001AD002F58062904218D002F580629042C5
:100C080016D002F58062904214D002F580629042BC
:100C180012D002F58062904210D002F580629042B4
:100C28003FF439AF082239E7012237E7022235E7D6
:100C3800032233E7042231E705222FE706222DE7B6
:100C480003B0F0BD704700BF00380140003C0140D0
:100C5800003802400000024008B5054B5B690342BA
:100C680000D108BD024B5861FFF7DAFCF9E700BF75
:100C7800003C0140002800F0DA8170B582B00446DB
:100C8800036813F0010F3BD09F4B9B6803F00C03E4
:100C9800042B2CD09C4B9B6803F00C03082B21D011
:100CA8006368B3F5803F4FD0B3F5A02F52D0964B71
:100CB8001A6822F480321A601A6822F480221A60B4
:100CC8006368002B50D0FFF759FE05468E4B1B6812
:100CD80013F4003F14D1FFF751FE401B6428F5D9E7
:100CE8000320ABE1884B5B6813F4800FD8D0864BA8
:100CF8001B6813F4003F03D06368002B00F0998150
:100D0800236813F0020F54D07F4B9B6813F00C0F2D
:100D18003ED07D4B9B6803F00C03082B33D0E3686F
:100D2800002B68D0794B01221A60FFF727FE054691
:100D3800754B1B6813F0020F54D1FFF71FFE401BC1
:100D48000228F5D9032079E16F4A136843F4803308
:100D58001360B5E76C4B1A6842F480221A601A686F
:100D680042F480321A60ABE7FFF708FE0546664B8F
:100D78001B6813F4003FC3D0FFF700FE401B642834
:100D8800F5D903205AE1604B5B6813F4800FC6D194
:100D98005D4B1B6813F0020F03D0E368012B40F092
:100DA8004A81594A136823F0F803216943EAC103C9
:100DB8001360236813F0080F42D063696BB3534B79
:100DC8000122C3F8802EFFF7D9FD05464E4B5B6F15
:100DD80013F0020F34D1FFF7D1FD401B0228F5D9DB
:100DE80003202BE1484A136823F0F803216943EAFA
:100DF800C1031360DDE7454B00221A60FFF7BEFD13
:100E08000546414B1B6813F0020FD2D0FFF7B6FD21
:100E1800401B0228F5D9032010E13C4B0022C3F8FF
:100E2800802EFFF7ABFD0546374B5B6F13F0020FC3
:100E380006D0FFF7A3FD401B0228F5D90320FDE0EB
:100E4800236813F0040F77D02F4B1B6C13F0805FCF
:100E580033D1002301932C4B1A6C42F080521A6450
:100E68001B6C03F080530193019B0125284B1B68E1
:100E780013F4807F23D0A368012B34D0052B38D0FE
:100E8800214B1A6F22F001021A671A6F22F004022E
:100E98001A67A368002B3DD0FFF770FD06461A4B72
:100EA8001B6F13F0020F46D1FFF768FD801B41F25C
:100EB80088339842F3D90320C0E00025D6E7144AC6
:100EC800136843F480731360FFF758FD0646104B10
:100ED8001B6813F4807FCED1FFF750FD801B0228DA
:100EE800F5D90320AAE0084A136F43F001031367FA
:100EF800CFE7054B1A6F42F004021A671A6F42F0E7
:100F080001021A67C5E700BF0038024000004742E7
:100F180000700040FFF732FD06464F4B1B6F13F081
:100F2800020F08D0FFF72AFD801B41F28833984250
:100F3800F3D9032082E0E5B9A369002B7DD0464AA6
:100F4800926802F00C02082A51D0022B17D0434BAA
:100F580000221A66FFF712FD04463F4B1B6813F088
:100F6800007F42D0FFF70AFD001B0228F5D90320B5
:100F780064E0394A136C23F080531364DCE7374B81
:100F880000221A66FFF7FAFC0546334B1B6813F07C
:100F9800007F06D0FFF7F2FC401B0228F5D903209A
:100FA8004CE0E369226A1343626A43EA8213A26A45
:100FB8005208013A43EA0243E26A43EA0263264AD4
:100FC8005360264B01221A66FFF7D8FC0446224BD1
:100FD8001B6813F0007F06D1FFF7D0FC001B022826
:100FE800F5D903202AE0002028E0002026E0012B84
:100FF80026D0194B5B6803F48001E269914221D144
:1010080003F03F02216A8A421ED1616A47F6C07224
:101018001A408A421AD103F44032A16A8A4217D18F
:1010280003F07063E26A934214D1002006E00120C5
:101038007047012002E0012000E0002002B070BDEE
:101048000120FBE70120F9E70120F7E70120F5E798
:101058000120F3E70120F1E7003802400000474291
:1010680008B5314B9B6803F00C03042B57D0082BB1
:1010780057D12D4B5A6802F03F025B6813F4800F7A
:101088002AD0294B5968C1F3881C4FEA4C11B1EB9F
:101098000C006EEB0E0E4FEA8E1343EA906381014B
:1010A800091A63EB0E03DB0043EA5173C90011EB25
:1010B8000C0C43F10003590200234FEA4C2041EA8B
:1010C800DC51FFF77DF8184B5B68C3F3014301332C
:1010D8005B00B0FBF3F025E0134B5968C1F3881CA3
:1010E8004FEA4C11B1EB0C006EEB0E0E4FEA8E136B
:1010F80043EA90638101091A63EB0E03DB0043EABC
:101108005173C90011EB0C0C43F100039902002341
:101118004FEA8C2041EA9C51FFF752F8D3E7034885
:1011280000E0034808BD00BF0038024000127A0002
:101138000024F400002800F09B8070B50D4604469A
:101148004F4B1B6803F00F038B4208D2CBB24C4ABB
:101158001370136803F00F038B4240F08B802368F1
:1011680013F0020F17D013F0040F04D0454A936808
:1011780043F4E0539360236813F0080F04D0414A06
:10118800936843F4604393603E4A936823F0F00306
:10119800A1680B439360236813F0010F32D0636892
:1011A800012B21D09A1E012A25D9364A126812F03D
:1011B800020F61D033498A6822F0030213438B601F
:1011C800FFF7DCFB06462F4B9B6803F00C036268B5
:1011D800B3EB820F16D0FFF7D1FB801B41F28833A7
:1011E8009842F0D9032042E0264A126812F4003FE0
:1011F800E0D101203BE0234A126812F0007FD9D1E8
:10120800012034E01E4B1B6803F00F03AB4207D9E3
:10121800EAB21B4B1A701B6803F00F03AB422DD1C7
:10122800236813F0040F06D0164A936823F4E0539A
:10123800E1680B439360236813F0080F07D0114A45
:10124800936823F46043216943EAC1039360FFF77D
:1012580007FF0C4B9B68C3F303130B4AD35CD840BE
:101268000A4B18600A4B1868FFF73CFB002070BD5A
:10127800012070470120FAE70120F8E70120F6E78E
:10128800003C024000380240AC1800084000002032
:101298004800002030B4036A23F001030362036AA4
:1012A8004268846924F073040D682C4323F0020C0F
:1012B8008B6843EA0C03104DA84203D005F58065FE
:1012C800A84205D123F00803CD682B4323F004037B
:1012D800094DA84203D005F58065A84205D122F43E
:1012E80040724D692A438D692A43426084614A6885
:1012F8004263036230BC70470000014030B4036AA7
:1013080023F480730362036A4268C46924F0730C8F
:101318000C6844EA0C0523F400738C6843EA042340
:10132800114CA04203D004F58064A04206D123F4F6
:101338000063CC6843EA042323F480630A4CA04288
:1013480003D004F58064A04207D122F440524C69CE
:1013580042EA04128C6942EA04124260C5614A6892
:10136800C263036230BC70470000014030B4036AB6
:1013780023F480530362036A4468C26922F4E64294
:101388000D6842EA052223F400538D6843EA0533C9
:10139800094DA84203D005F58065A84204D124F47C
:1013A80080444D6944EA85144460C2614A68026415
:1013B800036230BC704700BF00000140022380F880
:1013C8003D300268936803F00703062B03D01368C7
:1013D80043F001031360012380F83D30002070477B
:1013E800704700000368304A904212D0B0F1804F35
:1013F8000FD0A2F57C4290420BD002F58062904259
:1014080007D002F58062904203D002F578429042FC
:1014180003D123F070034A681343234A90422AD029
:10142800B0F1804F27D0A2F57C42904223D002F53C
:10143800806290421FD002F5806290421BD002F574
:101448007842904217D002F57052904213D002F5BC
:10145800806290420FD002F5806290420BD0A2F5D4
:101468009832904207D002F58062904203D002F58C
:101478008062904203D123F44073CA68134323F077
:1014880080034A69134303608B68C3620B688362F5
:10149800054B984203D003F58063984201D10B694C
:1014A800036301234361704700000140B0B110B5E8
:1014B800044690F83D3063B1022384F83D3021465C
:1014C80051F8040BFFF78EFF012384F83D3000200C
:1014D80010BD80F83C30FFF77DF9EDE7012070473B
:1014E800B0B110B5044690F83D3063B1022384F8DA
:1014F8003D30214651F8040BFFF774FF012384F8AF
:101508003D30002010BD80F83C30FFF769FFEDE763
:101518000120704730B4036A23F010030362036AA2
:101528004468826922F4E6420D6842EA052223F003
:1015380020038D6843EA0513114DA84203D005F531
:101548008065A84206D123F08003CD6843EA0513DD
:1015580023F040030A4DA84203D005F58065A84250
:1015680007D124F440644D6944EA85048D6944EA4E
:101578008504446082614A688263036230BC7047B4
:101588000000014038B590F83C30012B66D0044685
:101598000D46012380F83C30022380F83D300C2AA8
:1015A8001AD8DFE802F0071919192019191934197E
:1015B800191947000068FFF76DFE2268936943F028
:1015C800080393612268936923F0040393612268F6
:1015D800936929690B439361012384F83D30002006
:1015E80084F83C0038BD0068FFF794FF22689369CF
:1015F80043F4006393612268936923F480639361E1
:1016080022689369296943EA01239361E4E7006842
:10161800FFF774FE2268D36943F00803D361226898
:10162800D36923F00403D3612268D36929690B4382
:10163800D361D1E70068FFF799FE2268D36943F4C4
:101648000063D3612268D36923F48063D36122687D
:10165800D369296943EA0123D361BDE70220C1E7C1
:1016680001F01F01012303FA01FC036A23EA0C03BA
:101678000362036A02FA01F10B4303627047000038
:1016880010B5044601220068FFF7EAFF23680B4AF9
:10169800934203D002F58062934203D15A6C42F41C
:1016A80000425A642268936803F00703062B03D0AC
:1016B800136843F001031360002010BD00000140CF
:1016C80070B50D4E0D4D761BB61006D0002455F89A
:1016D800043B01349847A642F9D1094E094D761BBF
:1016E80000F0D4F8B61006D0002455F8043B0134B5
:1016F8009847A642F9D170BDC8180008C818000854
:10170800D0180008C8180008830730B548D0541E00
:10171800002A3FD0CAB2034601E0013C3AD303F89D
:10172800012B9D07F9D1032C2DD9CDB245EA05250A
:101738000F2C45EA054536D9A4F1100222F00F0C0A
:1017480003F1200EE6444FEA121C03F1100242E9AD
:10175800045542E9025510327245F8D10CF10102E4
:1017680014F00C0F03EB021204F00F0C13D0ACF1C1
:10177800040323F003030433134442F8045B934245
:10178800FBD10CF003042CB1CAB21C4403F8012BA2
:101798009C42FBD130BD64461346002CF4D1F9E7D6
:1017A80003461446BFE71A46A446E0E7024B13B1C6
:1017B800024800F005B8704700000000D51700087F
:1017C800002301461A46184600F01AB838B5084BE7
:1017D800084D5B1B9C1007D0043B1D44013C55F889
:1017E80004399847002CF9D1BDE8384000F054B8C6
:1017F800D4180008D0180008704700BF704700BF11
:101808002DE9F047DFF87CA00646DAF80000984694
:101818000F469146FFF7F0FF1B4B1B68D3F8484172
:1018280024B365681F2D26DC5EB96B1C0235DAF817
:101838000000636044F82570FFF7E0FF0020BDE872
:10184800F08704EB85010123C1F88890D4F888213A
:10185800AB401A43022EC4F88821C1F80881E4D1AC
:10186800D4F88C211343C4F88C31DEE703F5A67451
:10187800C3F84841D5E7DAF80000FFF7BFFF4FF09B
:10188800FF30DCE778040020BC180008F8B500BF7A
:10189800F8BC08BC9E467047F8B500BFF8BC08BC49
:0418A8009E467047A1
:1018AC000000000000000000010203040607080904
:0418BC0050000020B8
:0818C00038E9FF7F0100000080
:0818C800B5170008AD0100088E
:0418D0008901000882
:1018D40000080040000000000000000000000000BC
:1018E40000000000000000000000000000000000F4
:1018F40000000000000000000000000000000000E4
:1019040000000000000000000000000000000000D3
:101914000024F4000100000010000000000000009A
:10192400000000003C030020A40300200C0400205D
:1019340000000000000000000000000000000000A3
:101944000000000000000000000000000000000093
:101954000000000000000000000000000000000083
:101964000000000000000000000000000000000073
:101974000000000000000000000000000000000063
:101984000000000000000000000000000000000053
:101994000000000000000000000000000000000043
:1019A4000000000000000000000000000000000033
:1019B4000000000000000000000000000000000023
:1019C4000000000000000000010000000000000012
:1019D4000E33CDAB34126DE6ECDE05000B000000D7
:1019E40000000000000000000000000000000000F3
:1019F40000000000000000000000000000000000E3
:101A040000000000000000000000000000000000D2
:101A140000000000000000000000000000000000C2
:0C1D44000000000000000000A0040020CF
:04000005080008994E
:00000001FF
