:020000040800F2
:1000000000000220650700083D0700083F070008C0
:1000100041070008430700084507000800000000EA
:10002000000000000000000000000000470700087A
:1000300049070008000000004B0700084D070008B2
:10004000B5070008B5070008B5070008B5070008A0
:10005000B5070008B5070008B5070008B507000890
:10006000B5070008B5070008B5070008B507000880
:10007000B5070008B5070008B5070008B507000870
:10008000B5070008B5070008B5070008B507000860
:10009000B5070008B5070008B5070008B507000850
:1000A000B5070008B5070008B5070008B507000840
:1000B000B5070008B5070008B5070008B507000830
:1000C000B5070008B5070008B5070008B507000820
:1000D000B5070008B5070008B5070008B507000810
:1000E000B5070008B5070008B5070008B507000800
:1000F000B5070008B5070008B5070008B5070008F0
:10010000B5070008B5070008B5070008B5070008DF
:10011000B5070008B5070008B5070008B5070008CF
:10012000B5070008B5070008B5070008B5070008BF
:10013000B5070008B5070008B5070008B5070008AF
:10014000B5070008B5070008B5070008B50700089F
:10015000B5070008B5070008B5070008B50700088F
:10016000B5070008B5070008B5070008B50700087F
:10017000B5070008B5070008B50700080000000033
:08018000B5070008B5070008EF
:1001880010B5054C237833B9044B13B10448AFF3C9
:1001980000800123237010BD3C04002000000000F3
:1001A800B416000808B5034B1BB103490348AFF365
:1001B800008008BD0000000040040020B4160008BC
:1001C80053B94AB9002908BF00281CBF4FF0FF31B6
:1001D8004FF0FF3000F074B9ADF1080C6DE904CEB2
:1001E80000F006F8DDF804E0DDE9022304B070470A
:1001F8002DE9F047089E0D4604468846002B4DD150
:100208008A42944668D9B2FA82F252B101FA02F3EC
:10021800C2F1200120FA01F10CFA02FC41EA0308BC
:1002280094404FEA1C45210CB8FBF5FE1FFA8CF7E9
:1002380005FB1E8341EA03430EFB07F199420BD9E4
:100248001CEB03030EF1FF3080F01E81994240F24F
:100258001B81AEF1020E63445B1AA4B2B3FBF5F046
:1002680005FB103344EA034400FB07F7A7420AD909
:100278001CEB040400F1FF3380F00881A74240F230
:10028800058164440238E41B40EA0E4000211EB197
:10029800D4400023C6E90043BDE8F0878B4208D963
:1002A800002E00F0EE800021C6E900050846BDE8F2
:1002B800F087B3FA83F100294AD1AB4202D38242D4
:1002C80000F2F980841A65EB030301209846002E9A
:1002D800E2D0C6E90048DFE702B9FFDEB2FA82F2EF
:1002E800002A40F09180A1EB0C054FEA1C471FFA49
:1002F8008CFE0121B5FBF7F307FB1350250C45EAEB
:1003080000450EFB03F0A84208D91CEB050503F1D4
:10031800FF3802D2A84200F2CB8043462D1AA4B27D
:10032800B5FBF7F007FB105544EA05440EFB00FE49
:10033800A64508D91CEB040400F1FF3502D2A645F6
:1003480000F2BB802846A4EB0E0440EA03409EE777
:10035800C1F120078B4022FA07FC4CEA030C20FA73
:1003680007F405FA01F31C43FD404FEA1C4900FA63
:1003780001F3B5FBF9F8200C1FFA8CFE09FB1855A0
:1003880040EA054508FB0EF0A84202FA01F20BD933
:100398001CEB050508F1FF3A80F08880A84240F27E
:1003A8008580A8F1020865442D1AA4B2B5FBF9F0BE
:1003B80009FB105544EA054500FB0EFEAE4508D979
:1003C8001CEB050500F1FF346CD2AE456AD9023842
:1003D800654440EA0840A0FB0294A5EB0E05A5423F
:1003E800C846A64656D353D05EB1B3EB080265EBB8
:1003F8000E0505FA07F722FA01F3CD401F43C6E9B7
:1004080000750021BDE8F087C2F1200320FA03F14E
:100418000CFA02FC25FA03F395400D434FEA1C47FA
:100428001FFA8CFEB3FBF7F107FB11302B0C43EAE4
:10043800004301FB0EF0984204FA02F408D91CEBC1
:10044800030301F1FF382FD298422DD902396344B2
:100458001B1AADB2B3FBF7F007FB103345EA0345AF
:1004680000FB0EF3AB4208D91CEB050500F1FF3881
:1004780016D2AB4214D902386544ED1A40EA01415C
:1004880038E73146304607E78646E5E61846FAE695
:100498004B45A9D2B9EB020864EB0C0E0138A3E76F
:1004A8004046EAE7204694E74146D1E7D0467BE755
:1004B800023B654432E7084609E76444023842E7EC
:1004C800704700BF30B589B000240194184B1A6BEF
:1004D80042F001021A631A6B02F001020192019ABA
:1004E80002941A6C42F400321A641B6C03F4003351
:1004F8000293029B0C250395022304930123059381
:1005080003230693072307930DEB0501094800F021
:10051800FFF90948094B03604FF4E1334360456133
:100528008460C460C46100F037FF09B030BD00BF0B
:1005380000380240000002405804002000440040F7
:1005480000B587B0002100910B4B1A6B42F00802EE
:100558001A631B6B03F008030093009B4FF40053CE
:10056800019301230293039101A9044800F0D0F9F3
:1005780007B05DF804FB00BF00380240000C0240E1
:1005880072B6FEE700B595B03022002108A800F049
:10059800CBFF0023039304930593069307930193DA
:1005A8001F4A116C41F080511164126C02F08052A4
:1005B8000192019A02931B4A116841F4804111602B
:1005C800126802F480420292029A022208920121E1
:1005D8000B9110210C910E920F9308231093322344
:1005E8001193042312930723139308A800F07EFAAB
:1005F80090B90F23039302230493002105914FF42C
:10060800A05306934FF48053079303A800F0CEFC41
:1006180020B915B05DF804FBFFF7B2FFFFF7B0FF94
:10062800003802400070004000B583B000F0E6F8E2
:10063800FFF748FFFFF784FFFFF7A4FF4FF0FF33F2
:10064800012201A90C4800F0D6FE9DF80430722B57
:100658000AD09DF80430302BF0D100224FF400511D
:10066800064800F03DFAE9E701224FF4005103483B
:1006780000F036FAEDE700BF58040020000C0240F5
:1006880000B583B0002100910C4B5A6C42F48042B3
:100698005A645A6C02F480420092009A01911A6CD2
:1006A80042F080521A641B6C03F080530193019B43
:1006B800072000F0CFF803B05DF804FB00380240D3
:1006C80000B589B000230393049305930693079319
:1006D8000268164B9A4202D009B05DF804FB00216B
:1006E800019103F5F6331A6C42F400221A641A6C6D
:1006F80002F400220192019A02911A6B42F004025C
:100708001A631B6B03F004030293029B4FF480638C
:1007180003931223049301230593032306930823C9
:10072800079303A9024800F0F3F8D5E7004C00400E
:1007380000080240FEE7FEE7FEE7FEE7FEE7704737
:100748007047704708B500F073F808BD024B4FF0CA
:1007580000629A60704700BF00ED00E0DFF834D017
:10076800002103E00C4B5B58435004310B480C4B01
:1007780042189A42F6D30B4A02E0002342F8043B9F
:10078800094B9A42F9D3FFF7E1FF00F0A9FEFFF702
:100798004BFF704700000220FC16000800000020F4
:1007A8003C0400203C040020A0040020FEE70000D8
:1007B80010B504460E4B18784FF47A73B3FBF0F378
:1007C8000C4A1068B0FBF3F000F08EF868B90F2CF3
:1007D80001D901200AE0002221464FF0FF3000F045
:1007E8004BF8054B1C60002000E0012010BD00BF45
:1007F80004000020000000200800002008B50B4B72
:100808001A6842F400721A601A6842F480621A6028
:100818001A6842F480721A60032000F01BF8002066
:10082800FFF7C6FFFFF72CFF002008BD003C024081
:10083800034A1168034B1B780B441360704700BFD1
:100848009804002004000020014B1868704700BF7E
:1008580098040020074AD36823F4E0631B041B0CA8
:10086800000200F4E060034343F0BF6343F4003345
:10087800D360704700ED00E000B5194BDB68C3F3A7
:100888000223C3F1070CBCF1040F28BF4FF0040C7E
:1008980003F1040EBEF1060F18D9033B4FF0FF3EDB
:1008A8000EFA0CFC21EA0C0199400EFA03F322EA35
:1008B8000303194300280BDB0901C9B200F16040AA
:1008C80000F5614080F800135DF804FB0023E5E7BC
:1008D80000F00F000901C9B2024B1954F4E700BF38
:1008E80000ED00E014ED00E00138B0F1807F0BD29C
:1008F8004FF0E0235861054AF02182F823100020C8
:10090800986107221A6170470120704700ED00E0E6
:1009180000230F2B00F2DA80F0B583B03AE007220B
:1009280000E00022AA4032430234694D45F82420F1
:10093800684A14686FEA0C0224EA0C054E6816F43B
:10094800803F01D04CEA0405624C2560646802EAE5
:1009580004054E6816F4003F01D04CEA04055D4CCE
:100968006560A46802EA04054E6816F4801F01D089
:100978004CEA0405574CA560E46822404D6815F41C
:10098800001F01D04CEA0402524CE26001330F2BE5
:1009980000F29A8001229A400C6804EA020C32EABA
:1009A8000404F3D14C68651E012D03D9112C01D024
:1009B800122C12D185685E000324B44025EA040590
:1009C800CC68B4402C438460456825EA02054C682D
:1009D800C4F300129A402A434260C5684FEA430EA6
:1009E800032404FA0EF4E24325EA04058C6804FAA9
:1009F8000EF42C43C4604C68022C01D0122C0FD189
:100A0800DD08083550F8257003F00704A6000F2408
:100A1800B44027EA04070C69B4403C4340F8254039
:100A2800046814404A6802F0030202FA0EF22243F4
:100A380002604A6812F0805FA8D000220192264A1C
:100A4800546C44F480445464526C02F48042019221
:100A5800019A9C08A51C1E4A52F8256003F003025F
:100A680095000F22AA4026EA02061C4A90423FF44B
:100A780058AF02F5806290421AD002F58062904227
:100A880018D002F58062904216D002F5806290423A
:100A980014D002F58062904212D002F58062904232
:100AA80010D002F5806290423FF439AF082239E74E
:100AB800012237E7022235E7032233E7042231E730
:100AC80005222FE706222DE703B0F0BD704700BFCF
:100AD80000380140003C014000380240000002405C
:100AE8000AB181617047090481617047002800F0EC
:100AF800DA8170B582B00446036813F0010F3BD069
:100B08009F4B9B6803F00C03042B2CD09C4B9B68D9
:100B180003F00C03082B21D06368B3F5803F4FD056
:100B2800B3F5A02F52D0964B1A6822F480321A607F
:100B38001A6822F480221A606368002B50D0FFF7ED
:100B480083FE05468E4B1B6813F4003F14D1FFF754
:100B58007BFE401B6428F5D90320ABE1884B5B681A
:100B680013F4800FD8D0864B1B6813F4003F03D0D2
:100B78006368002B00F09981236813F0020F54D0AA
:100B88007F4B9B6813F00C0F3ED07D4B9B6803F0A6
:100B98000C03082B33D0E368002B68D0794B012273
:100BA8001A60FFF751FE0546754B1B6813F0020FDC
:100BB80054D1FFF749FE401B0228F5D9032079E1FB
:100BC8006F4A136843F480331360B5E76C4B1A68B7
:100BD80042F480221A601A6842F480321A60ABE745
:100BE800FFF732FE0546664B1B6813F4003FC3D07F
:100BF800FFF72AFE401B6428F5D903205AE1604B11
:100C08005B6813F4800FC6D15D4B1B6813F0020FAD
:100C180003D0E368012B40F04A81594A136823F056
:100C2800F803216943EAC1031360236813F0080F2E
:100C380042D063696BB3534B0122C3F8802EFFF790
:100C480003FE05464E4B5B6F13F0020F34D1FFF7DE
:100C5800FBFD401B0228F5D903202BE1484A136805
:100C680023F0F803216943EAC1031360DDE7454B2C
:100C780000221A60FFF7E8FD0546414B1B6813F098
:100C8800020FD2D0FFF7E0FD401B0228F5D9032060
:100C980010E13C4B0022C3F8802EFFF7D5FD054636
:100CA800374B5B6F13F0020F06D0FFF7CDFD401BEB
:100CB8000228F5D90320FDE0236813F0040F77D04C
:100CC8002F4B1B6C13F0805F33D1002301932C4B07
:100CD8001A6C42F080521A641B6C03F08053019323
:100CE800019B0125284B1B6813F4807F23D0A36840
:100CF800012B34D0052B38D0214B1A6F22F001027A
:100D08001A671A6F22F004021A67A368002B3DD0F5
:100D1800FFF79AFD06461A4B1B6F13F0020F46D1D8
:100D2800FFF792FD801B41F288339842F3D90320E4
:100D3800C0E00025D6E7144A136843F480731360B3
:100D4800FFF782FD0646104B1B6813F4807FCED157
:100D5800FFF77AFD801B0228F5D90320AAE0084A8C
:100D6800136F43F001031367CFE7054B1A6F42F087
:100D780004021A671A6F42F001021A67C5E700BF3A
:100D8800003802400000474200700040FFF75CFD59
:100D980006464F4B1B6F13F0020F08D0FFF754FDA8
:100DA800801B41F288339842F3D9032082E0E5B9E9
:100DB800A369002B7DD0464A926802F00C02082AEB
:100DC80051D0022B17D0434B00221A66FFF73CFD87
:100DD80004463F4B1B6813F0007F42D0FFF734FDF9
:100DE800001B0228F5D9032064E0394A136C23F06C
:100DF80080531364DCE7374B00221A66FFF724FDA3
:100E08000546334B1B6813F0007F06D0FFF71CFD27
:100E1800401B0228F5D903204CE0E369226A1343FA
:100E2800626A43EA8213A26A5208013A43EA024319
:100E3800E26A43EA0263264A5360264B01221A6695
:100E4800FFF702FD0446224B1B6813F0007F06D112
:100E5800FFF7FAFC001B0228F5D903202AE000203E
:100E680028E0002026E0012B26D0194B5B6803F40C
:100E78008001E269914221D103F03F02216A8A424E
:100E88001ED1616A47F6C0721A408A421AD103F429
:100E98004032A16A8A4217D103F07063E26A934232
:100EA80014D1002006E001207047012002E0012053
:100EB80000E0002002B070BD0120FBE70120F9E747
:100EC8000120F7E70120F5E70120F3E70120F1E72A
:100ED800003802400000474208B5314B9B6803F0D8
:100EE8000C03042B57D0082B57D12D4B5A6802F00E
:100EF8003F025B6813F4800F2AD0294B5968C1F36D
:100F0800881C4FEA4C11B1EB0C006EEB0E0E4FEA49
:100F18008E1343EA90638101091A63EB0E03DB0029
:100F280043EA5173C90011EB0C0C43F10003590259
:100F380000234FEA4C2041EADC51FFF741F9184BF6
:100F48005B68C3F3014301335B00B0FBF3F025E0BA
:100F5800134B5968C1F3881C4FEA4C11B1EB0C00D4
:100F68006EEB0E0E4FEA8E1343EA90638101091A65
:100F780063EB0E03DB0043EA5173C90011EB0C0C61
:100F880043F10003990200234FEA8C2041EA9C5167
:100F9800FFF716F9D3E7034800E0034808BD00BF90
:100FA8000038024000127A000024F400002800F003
:100FB8009B8070B50D4604464F4B1B6803F00F032A
:100FC8008B4208D2CBB24C4A1370136803F00F035C
:100FD8008B4240F08B80236813F0020F17D013F078
:100FE800040F04D0454A936843F4E05393602368A0
:100FF80013F0080F04D0414A936843F460439360A8
:101008003E4A936823F0F003A1680B43936023687A
:1010180013F0010F32D06368012B21D09A1E012AE8
:1010280025D9364A126812F0020F61D033498A680E
:1010380022F0030213438B60FFF706FC06462F4B92
:101048009B6803F00C036268B3EB820F16D0FFF7BE
:10105800FBFB801B41F288339842F0D9032042E021
:10106800264A126812F4003FE0D101203BE0234AEF
:10107800126812F0007FD9D1012034E01E4B1B68A2
:1010880003F00F03AB4207D9EAB21B4B1A701B6877
:1010980003F00F03AB422DD1236813F0040F06D0E1
:1010A800164A936823F4E053E1680B43936023687E
:1010B80013F0080F07D0114A936823F4604321699D
:1010C80043EAC1039360FFF707FF0C4B9B68C3F328
:1010D80003130B4AD35CD8400A4B18600A4B1868B4
:1010E800FFF766FB002070BD012070470120FAE77A
:1010F8000120F8E70120F6E7003C024000380240F2
:10110800CC1600080000002008000020014B1868D9
:10111800704700BF0000002008B5FFF7F7FF044B39
:101128009B68C3F38223034AD35CD84008BD00BF41
:1011380000380240DC16000808B5FFF7E7FF044B4B
:101148009B68C3F34233034AD35CD84008BD00BF51
:1011580000380240DC16000838B5044602681369F6
:1011680023F44053C1680B43136183680269134336
:1011780042691343C2691A430168CB6823F41643D2
:1011880023F00C031343CB600268536923F44073C4
:1011980081690B435361C369B3F5004F35D00368C8
:1011A800604A934200F0918002F58062934200F019
:1011B8008C80FFF7B1FF0021031849411B1841F14A
:1011C8000001C90041EA5371DB00181863684FEA4F
:1011D80083024FEA937341F10001FEF7F1FF524D8C
:1011E800A5FB00325109642303FB11031B013233B1
:1011F800A5FB03235B0903F0F00202EB011203F0E5
:101208000F03216813448B608AE00368454A9342C0
:101218002FD002F5806293422BD0FFF77DFF002389
:10122800021843EB0301121841F10001C90041EA19
:101238005271D200101841F10001626892185B41A6
:10124800FEF7BEFF384DA5FB00325109642303FBAE
:101258001103DB003233A5FB03235B095A0002F4B8
:10126800F87202EB011203F00703216813448B6044
:1012780056E0FFF761FF0023021843EB0301121841
:1012880041F10001C90041EA5271D200101841F140
:101298000001626892185B41FEF792FF224DA5FBA0
:1012A80000325109642303FB1103DB003233A5FB31
:1012B80003235B095A0002F4F87202EB011203F0EF
:1012C8000703216813448B602AE0FFF735FF0021EC
:1012D800031849411B1841F10001C90041EA537143
:1012E800DB00181863684FEA83024FEA937341F1F1
:1012F8000001FEF765FF0C4DA5FB00325109642380
:1013080003FB11031B013233A5FB03235B0903F025
:10131800F00202EB011203F00F03216813448B6003
:1013280038BD00BF001001401F85EB512DE9F8437F
:1013380005460F4616469946DDF820802C68246835
:1013480037EA04030CBF4FF0010C4FF0000CB44512
:101358001FD1B8F1FF3FF1D0B8F1000F05D0FFF76A
:1013680073FAA0EB09004045E8D92A68D36823F44A
:10137800D073D3602A68536923F001035361202393
:1013880085F8393085F83A30002385F8383003205D
:1013980000E00020BDE8F88358B310B5044690F883
:1013A80039300BB3242384F839302268D36823F406
:1013B8000053D3602046FFF7CFFE2268136923F459
:1013C800904313612268536923F02A03536122680A
:1013D800D36843F40053D3600020E063202384F8EB
:1013E800393084F83A3010BD80F83830FFF768F9A2
:1013F800D8E7012070472DE9F04383B01E4690F8E6
:101408003A30DBB2202B5DD104460D4690460029C8
:101418005CD0002A5CD090F83830012B5AD00123D8
:1014280080F838304FF00009C0F83C90222380F84B
:101438003A30FFF709FA0746A4F82C80A4F82E8062
:1014480084F838901DE000963B4600222021204673
:10145800FFF76CFF00283FD1236933B923685B6825
:10146800C3F3080325F8023B0BE023685B68DBB293
:1014780025F8013B05E023685B6803F07F0305F866
:10148800013BE38D9BB2C3B1E28D92B2013A92B2B5
:10149800E285A368B3F5805FD5D000963B4600226D
:1014A80020212046FFF742FFC0B92369002BE2D173
:1014B80023685B6805F8013BE3E7202384F83A30AA
:1014C800002000E0022003B0BDE8F0830120FAE725
:1014D8000120F8E70220F6E70320F4E70320F2E70B
:1014E80070B50D4E0D4D761BB61006D0002455F87C
:1014F800043B01349847A642F9D1094E094D761BA1
:1015080000F0D4F8B61006D0002455F8043B013496
:101518009847A642F9D170BDF0160008F0160008E9
:10152800F8160008F0160008830730B548D0541E96
:10153800002A3FD0CAB2034601E0013C3AD303F87F
:10154800012B9D07F9D1032C2DD9CDB245EA0525EC
:101558000F2C45EA054536D9A4F1100222F00F0CEC
:1015680003F1200EE6444FEA121C03F1100242E98F
:10157800045542E9025510327245F8D10CF10102C6
:1015880014F00C0F03EB021204F00F0C13D0ACF1A3
:10159800040323F003030433134442F8045B934227
:1015A800FBD10CF003042CB1CAB21C4403F8012B84
:1015B8009C42FBD130BD64461346002CF4D1F9E7B8
:1015C80003461446BFE71A46A446E0E7024B13B1A8
:1015D800024800F005B8704700000000F515000843
:1015E800002301461A46184600F01AB838B5084BC9
:1015F800084D5B1B9C1007D0043B1D44013C55F86B
:1016080004399847002CF9D1BDE8384000F054B8A7
:10161800FC160008F8160008704700BF704700BFA6
:101628002DE9F047DFF87CA00646DAF80000984676
:101638000F469146FFF7F0FF1B4B1B68D3F8484154
:1016480024B365681F2D26DC5EB96B1C0235DAF8F9
:101658000000636044F82570FFF7E0FF0020BDE854
:10166800F08704EB85010123C1F88890D4F888211C
:10167800AB401A43022EC4F88821C1F80881E4D18E
:10168800D4F88C211343C4F88C31DEE703F5A67433
:10169800C3F84841D5E7DAF80000FFF7BFFF4FF07D
:1016A800FF30DCE738040020E4160008F8B500BF76
:1016B800F8BC08BC9E467047F8B500BFF8BC08BC2B
:0416C8009E46704783
:1016CC0000000000000000000102030406070809E6
:0C16DC00000000000102030410000020C8
:0816E80010EBFF7F0100000080
:0816F000D5150008AD0100084A
:0416F800890100085C
:1016FC000024F400010000001000000000000000B5
:10170C0000000000FC02002064030020CC03002039
:10171C0000000000000000000000000000000000BD
:10172C0000000000000000000000000000000000AD
:10173C00000000000000000000000000000000009D
:10174C00000000000000000000000000000000008D
:10175C00000000000000000000000000000000007D
:10176C00000000000000000000000000000000006D
:10177C00000000000000000000000000000000005D
:10178C00000000000000000000000000000000004D
:10179C00000000000000000000000000000000003D
:1017AC00000000000000000001000000000000002C
:1017BC000E33CDAB34126DE6ECDE05000B000000F1
:1017CC00000000000000000000000000000000000D
:1017DC0000000000000000000000000000000000FD
:1017EC0000000000000000000000000000000000ED
:1017FC0000000000000000000000000000000000DD
:0C1B2C0000000000000000009C040020ED
:040000050800076583
:00000001FF
